:020000040800F2
:1000000000000520B9A60008C9A50008D7A500086A
:10001000DDA50008E3A50008E9A500080000000030
:10002000000000000000000000000000EFA5000834
:10003000FDA50008000000000BA6000819A6000896
:1000400009A7000809A7000809A7000809A70008D0
:1000500009A7000809A7000809A7000809A70008C0
:1000600009A7000809A7000809A7000809A70008B0
:1000700009A7000809A7000809A7000809A70008A0
:1000800009A7000809A7000809A7000809A7000890
:1000900009A7000809A7000809A7000809A7000880
:1000A00009A7000809A7000809A7000809A7000870
:1000B00009A7000809A7000809A7000809A7000860
:1000C00009A7000809A7000809A7000809A7000850
:1000D00009A7000809A7000809A7000809A7000840
:1000E00009A7000809A7000809A7000809A7000830
:1000F00009A7000809A7000809A7000809A7000820
:1001000009A7000809A7000809A7000809A700080F
:1001100009A7000809A7000809A7000809A70008FF
:1001200009A7000809A7000809A7000809A70008EF
:1001300009A7000809A7000809A7000809A70008DF
:1001400009A7000809A7000809A7000809A70008CF
:1001500009A7000809A7000809A7000809A70008BF
:1001600009A7000809A7000809A7000809A70008AF
:1001700009A7000809A7000809A700080000000057
:1001800009A7000809A7000809A7000809A700088F
:1001900009A7000809A7000809A7000809A700087F
:1001A00025A6000809A7000839A6000809A7000825
:1001B00009A7000809A7000809A7000809A700085F
:0801C00009A7000809A70008C7
:1001C80010B5054C237833B9044B13B10448AFF389
:1001D80000800123237010BD5C0000200000000097
:1001E80064A7000808B5034B1BB103490348AFF3E4
:1001F800008008BD000000006000002064A700081F
:1002080053B94AB9002908BF00281CBF4FF0FF3175
:100218004FF0FF3000F06EB9ADF1080C6DE904CE77
:1002280000F006F8DDF804E0DDE9022304B07047C9
:100238002DE9F047089D04468C46002B40F083804A
:100248008A42174647D9B2FA82F242B1C2F1200077
:1002580024FA00F09140974040EA010C94404FEA9C
:100268001748230CBCFBF8F61FFA87FE08FB16C1DB
:1002780043EA014306FB0EF1994209D9FB1806F13E
:10028800FF3080F01981994240F21681023E3B44CA
:100298005B1AA4B2B3FBF8F008FB103344EA03443A
:1002A80000FB0EFEA64509D93C1900F1FF3380F08A
:1002B8000581A64540F2028102383C4440EA0640E6
:1002C800A4EB0E0400261DB1D4400023C5E9004369
:1002D8003146BDE8F08702B9FFDEB2FA82F2002AA1
:1002E80050D1CB1B4FEA174E1FFA87F80126B3FBF4
:1002F800FEFC210C0EFB1C3341EA034108FB0CF306
:100308008B4207D979180CF1FF3002D28B4200F2E8
:10031800E9808446C91AA3B2B1FBFEF00EFB1011A6
:1003280043EA014408FB00F8A04507D93C1900F14D
:10033800FF3302D2A04500F2D9801846A4EB080486
:1003480040EA0C40BFE78B4209D9002D00F0B1808C
:100358000026C5E9000130463146BDE8F087B3FA0A
:1003680083F6002E4AD18B4202D3824200F2B88033
:10037800841A61EB030101208C46002DA8D0C5E941
:10038800004CA5E7C2F1200320FA03F6974001FAD2
:1003980002F04FEA174ED9403043030CB1FBFEF68A
:1003A8001FFA87F80EFB161143EA014306FB08F112
:1003B800994204FA02F409D9FB1806F1FF3C80F0CF
:1003C8008D80994240F28A80023E3B445B1A81B29A
:1003D800B3FBFEF00EFB103341EA034100FB08F3C8
:1003E8008B4207D9791800F1FF3C73D28B4271D93F
:1003F80002383944CB1A40EA064678E7C6F1200CA1
:1004080003FA06F422FA0CF31C4320FA0CF701FA5B
:1004180006F34FEA144E21FA0CF11F433B0CB1FBD3
:10042800FEF91FFA84F80EFB191143EA014109FB92
:1004380008FA8A4502FA06F200FA06F308D96118A2
:1004480009F1FF3048D28A4546D9A9F10209214469
:10045800A1EB0A01BFB2B1FBFEF00EFB101147EA97
:10046800014700FB08F8B84507D9E71900F1FF3143
:100478002ED2B8452CD90238274440EA0940A7EBC8
:100488000807A0FB02894F45C64649461AD317D02C
:100498005DB1B3EB0E0267EB010707FA0CFCF24003
:1004A8004CEA0202F740C5E9002700263146BDE8BC
:1004B800F0872E4628460BE70646E9E61846FDE68D
:1004C8004345E5D2B8EB020E69EB04010138DFE7DA
:1004D8000846D2E760468DE78146B9E7664675E784
:1004E80030464AE7ACF1020C394413E702383C4481
:1004F80024E700BF704700BF80B588B000AF7B60BD
:100508000346FB810B46BB811346FB720023FB614C
:10051800BB89DBB23B83BB8923F0FF03FB8200234B
:100528007B8301F071FCFB89DBB203224FF48171FC
:10053800184601F0FBFA03461A46FB691344FB61AF
:10054800FB89DBB2002240F61701184601F0EEFAEB
:1005580003461A46FB691344FB61FB89DBB20022A0
:100568004FF48171184601F0E1FA03461A46FB6917
:100578001344FB61FB89DBB26C223921184601F078
:10058800D5FA03461A46FB691344FB61FB8A002B24
:100598000CD0FB89DBB213220121184601F0C6FA00
:1005A80003461A46FB691344FB610BE0FB89DBB287
:1005B80003220121184601F0B9FA03461A46FB69DD
:1005C8001344FB61322001F087FC3B8B002B00F0C9
:1005D8005F81AE4B01221A603B8B032B00F08C80AD
:1005E800032B00F31181012B02D0022B42D00BE127
:1005F800FB89DBB240F60C420521184601F096FA59
:1006080003461A46FB691344FB61FB89DBB20022EF
:1006180040F20161184601F089FA03461A46FB695F
:100628001344FB61FB89DBB2002240F202611846E9
:1006380001F07CFA03461A46FB691344FB61FB8907
:10064800DBB2022240F20461184601F06FFA034659
:100658001A46FB691344FB61FB89DBB2022240F2B4
:100668000561184601F062FA03461A46FB6913440D
:10067800FB6110E1FB89DBB240F203320521184629
:1006880001F054FA03461A46FB691344FB61FB89DF
:10069800DBB2012240F20161184601F047FA034635
:1006A8001A46FB691344FB61FB89DBB2012240F265
:1006B8000261184601F03AFA03461A46FB691344E8
:1006C800FB61FB89DBB2002240F20461184601F0AD
:1006D8002DFA03461A46FB691344FB61FB89DBB21A
:1006E800002240F20561184601F020FA03461A4636
:1006F800FB691344FB61CEE0FB8AB3F5006F41D17F
:10070800FB89DBB240F60F720521184601F00EFA9C
:1007180003461A46FB691344FB61FB89DBB20322DB
:1007280040F20161184601F001FA03461A46FB69D6
:100738001344FB61FB89DBB2032240F202611846D5
:1007480001F0F4F903461A46FB691344FB61FB897F
:10075800DBB2032240F20461184601F0E7F90346D0
:100768001A46FB691344FB61FB89DBB2032240F2A2
:100778000561184601F0DAF903461A46FB69134485
:10078800FB6188E0FB89DBB240F60F720521184651
:1007980001F0CCF903461A46FB691344FB61FB8957
:1007A800DBB2012240F20161184601F0BFF90346AD
:1007B8001A46FB691344FB61FB89DBB2012240F254
:1007C8000261184601F0B2F903461A46FB69134460
:1007D800FB61FB89DBB2022240F20461184601F09A
:1007E800A5F903461A46FB691344FB61FB89DBB292
:1007F800022240F20561184601F098F903461A46AC
:10080800FB691344FB6146E0FB89DBB240F203322B
:100818000521184601F08AF903461A46FB69134474
:10082800FB61FB89DBB2012240F20161184601F04D
:100838007DF903461A46FB691344FB61FB89DBB269
:10084800012240F20261184601F070F903461A4687
:10085800FB691344FB61FB89DBB2002240F20461AF
:10086800184601F063F903461A46FB691344FB6115
:10087800FB89DBB2002240F20561184601F056F907
:1008880003461A46FB691344FB6104E07800002024
:10089800994B00221A60FB8A002B00F0AB81974B22
:1008A80001221A60FB8AB3F5006F00F02981B3F5C5
:1008B800006F00F39B81B3F5407F5AD0B3F5407FBA
:1008C80000F39481B3F5807F00F0C680B3F5007F14
:1008D80040F08C81FB89DBB24FF443620421184657
:1008E80001F024F903461A46FB691344FB61FB89AE
:1008F800DBB2DB224FF48A61184601F017F9034690
:100908001A46FB691344FB61FB89DBB24FF4C04212
:100918000221184601F00AF903461A46FB691344F6
:10092800FB61FB89DBB202224FF4C161184601F07A
:10093800FDF803461A46FB691344FB61FB89DBB2E9
:10094800022240F20961184601F0F0F803461A46FF
:10095800FB691344FB61FB89DBB20E224FF4E061B3
:10096800184601F0E3F803461A46FB691344FB6195
:1009780043E1FB89DBB211222821184601F0D6F8A1
:1009880003461A46FB691344FB61FB89DBB2352237
:100998002921184601F0CAF803461A46FB69134490
:1009A800FB61FB89DBB235222A21184601F0BEF82B
:1009B80003461A46FB691344FB61FB89DBB240F22C
:1009C80003320421184601F0B1F803461A46FB69C0
:1009D8001344FB61FB89DBB2DB224FF488611846C4
:1009E80001F0A4F803461A46FB691344FB61FB892E
:1009F800DBB246F250320221184601F097F803465E
:100A08001A46FB691344FB61FB89DBB2022240F200
:100A18000661184601F08AF803461A46FB69134432
:100A2800FB61FB89DBB2022240F20761184601F044
:100A38007DF803461A46FB691344FB61FB89DBB268
:100A48000D224FF4E061184601F070F803461A468B
:100A5800FB691344FB61D0E0FB89DBB24FF44372BE
:100A68000421184601F062F803461A46FB6913444C
:100A7800FB61FB89DBB2DB224FF48861184601F089
:100A880055F803461A46FB691344FB61FB89DBB240
:100A980046F250320221184601F048F803461A4639
:100AA800FB691344FB61FB89DBB2022240F2066159
:100AB800184601F03BF803461A46FB691344FB61EC
:100AC800FB89DBB2022240F20761184601F02EF8DA
:100AD80003461A46FB691344FB61FB89DBB20D220E
:100AE8004FF4E061184601F021F803461A46FB6905
:100AF8001344FB6181E000BF780000207C000020E7
:100B0800FB89DBB240F63C720421184601F00EF86E
:100B180003461A46FB691344FB61FB89DBB2DB22FF
:100B28004FF48A61184601F001F803461A46FB693A
:100B38001344FB61FB89DBB2DB224FF48861184662
:100B480000F0F4FF03461A46FB691344FB61FB8976
:100B5800DBB246F2A0320221184600F0E7FF034656
:100B68001A46FB691344FB61FB89DBB2022240F29F
:100B78000661184600F0DAFF03461A46FB6913447B
:100B8800FB61FB89DBB2022240F20761184600F0E4
:100B9800CDFF03461A46FB691344FB61FB89DBB2B0
:100BA80002224FF4C161184600F0C0FF03461A46FE
:100BB800FB691344FB61FB89DBB2022240F2096145
:100BC800184600F0B3FF03461A46FB691344FB615D
:100BD800FB89DBB20D224FF4E061184600F0A6FF56
:100BE80003461A46FB691344FB6106E0FB690133BF
:100BF800FB6102E0A44B00221A607B68A34A93427F
:100C080079D07B68A14A934200F2AD807B684BF6AD
:100C18008032934261D07B684BF68032934200F277
:100C2800A2807B684AF64442934200F08E807B683B
:100C38004AF64442934200F296807B68B3F5FA4F35
:100C48003DD07B68B3F5FA4F00F28D807B6845F2A2
:100C5800226293426BD07B6845F22262934200F293
:100C680082807B68B3F57A5F1BD07B68B3F57A5FC7
:100C780079D87B68B3F5FA5F05D07B6842F6113204
:100C8800934246D06FE0FB89DBB203224FF4047134
:100C9800184600F04BFF03461A46FB691344FB61F4
:100CA8006FE0FB89DBB233224FF40471184600F081
:100CB8003DFF03461A46FB691344FB6161E0FB896B
:100CC800DBB263224FF40471184600F02FFF03468D
:100CD8001A46FB691344FB6153E0FB89DBB28322AC
:100CE8004FF40471184600F021FF03461A46FB69C9
:100CF8001344FB6145E0FB89DBB2A3224FF4047186
:100D0800184600F013FF03461A46FB691344FB61BB
:100D180037E0FB89DBB213224FF40471184600F068
:100D280005FF03461A46FB691344FB6129E0FB896A
:100D3800DBB243224FF40471184600F0F7FE034675
:100D48001A46FB691344FB611BE0FB89DBB2732283
:100D58004FF40471184600F0E9FE03461A46FB6991
:100D68001344FB610DE0FB89DBB283224FF404716D
:100D7800184600F0DBFE03461A46FB691344FB6184
:100D880000BFFB8AB3F5006F0ED1FB89DBB244F2DA
:100D980018024FF44071184600F0C8FE03461A4680
:100DA800FB691344FB610DE0FB89DBB244F21002DE
:100DB8004FF44071184600F0B9FE03461A46FB6925
:100DC8001344FB61FB89DBB2002240F20231184672
:100DD80000F0ACFE03461A46FB691344FB61FB892D
:100DE800DBB20A224FF40271184600F09FFE034658
:100DF8001A46FB691344FB61FB89DBB201224FF4FD
:100E08000071184600F092FE03461A46FB69134427
:100E1800FB613B8B002B00F07B813B8B022B57D176
:100E2800FB89DBB24FF480722D21184600F07EFE5C
:100E380003461A46FB691344FB61FB89DBB24FF496
:100E480080722E21184600F071FE03461A46FB698F
:100E58001344FB610E4B1B78002B1BD0FB89DBB2C4
:100E68004FF401424FF48871184600F05FFE0346C4
:100E78001A46FB691344FB61054B00221A704FF4B4
:100E8800967001F029F816E07C0000200077010038
:100E980030000020FB89DBB248F208124FF4887159
:100EA800184600F043FE03461A46FB691344FB61EB
:100EB800322001F011F8FB89DBB200224FF4846183
:100EC800184600F033FE03461A46FB691344FB61DB
:100ED800FB89DBB24FF440720321184600F026FE6E
:100EE80003461A46FB691344FB61FB89DBB2002207
:100EF8002221184600F01AFE03461A46FB691344DD
:100F0800FB61FB89DBB200222321184600F00EFEAC
:100F180003461A46FB691344FB61FB89DBB24FF4B5
:100F280040723621184600F001FE03461A46FB6956
:100F38001344FB61FB89DBB243F20302012118462B
:100F480000F0F4FD03461A46FB691344FB61FB8A73
:100F5800B3F5006F0DD1FB89DBB240F205225121B8
:100F6800184600F0E3FD03461A46FB691344FB618B
:100F78000BE0FB89DBB205225121184600F0D6FDB3
:100F880003461A46FB691344FB617B8B43F44C53BD
:100F980043F003037B83FB89DBB27A8B012118467C
:100FA80000F0C4FD03461A46FB691344FB61FB8944
:100FB800DBB222226021184600F0B8FD03461A462B
:100FC800FB691344FB61FB89DBB249F625724C21AE
:100FD800184600F0ABFD03461A46FB691344FB6153
:100FE8000F2000F079FFFB89DBB201222D21184682
:100FF80000F09CFD03461A46FB691344FB61FB891C
:10100800DBB201222E21184600F090FD03461A4655
:10101800FB691344FB61FB89DBB24FF44C7203217B
:10102800184600F083FD03461A46FB691344FB612A
:10103800FB89DBB233225421184600F077FD0346C2
:101048001A46FB691344FB6140F2011000F044FFAB
:10105800FB89DBB2EE226021184600F067FD0346EB
:101068001A46FB691344FB61FB89DBB2C0224FF4CB
:10107800C261184600F05AFD03461A46FB6913443C
:10108800FB61FB89DBB2C02240F21161184600F017
:101098004DFD03461A46FB691344FB61FB89DBB22D
:1010A80010224FF48461184600F040FD03461A46AA
:1010B800FB691344FB61FB89DBB2C02240F2126179
:1010C800184600F033FD03461A46FB691344FB61DA
:1010D800FB89DBB2C02240F21361184600F026FDFE
:1010E80003461A46FB691344FB61FB89DBB21022F5
:1010F80040F22241184600F019FD03461A46FB69E2
:101108001344FB61FA7AFB891146184600F084F90A
:10111800FB8A002B00F0A680FB8AB3F5807F03D002
:10112800FB8AB3F5007F2BD17B8B43F013037B83C2
:10113800FB89DBB27A8B0121184600F0F7FC0346E5
:101148001A46FB691344FB61FB89DBB202224FF4A8
:10115800C461184600F0EAFC03461A46FB691344CA
:10116800FB61FB89DBB24FF4605240F21141184633
:1011780000F0DCFC03461A46FB691344FB616BE094
:10118800FB8AB3F5006F39D17B8B43F013037B8364
:10119800FB89DBB27A8B0121184600F0C7FC0346B5
:1011A8001A46FB691344FB61FB89DBB202224FF448
:1011B800C461184600F0BAFC03461A46FB6913449A
:1011C800FB61FB89DBB24FF4C0524FF482611846D1
:1011D80000F0ACFC03461A46FB691344FB61FB892B
:1011E800DBB24FF4C05240F21141184600F09EFCA9
:1011F80003461A46FB691344FB612DE0FB8AB3F5ED
:10120800407F03D0FB8AB3F5806F25D1FB89DBB221
:101218000B221821184600F089FC03461A46FB6980
:101228001344FB61FB89DBB20B221A21184600F03C
:101238007DFC03461A46FB691344FB61FB89DBB25C
:101248004FF4C0524FF48261184600F06FFC034619
:101258001A46FB691344FB61FA7AFB891146184662
:1012680000F0DAF8FB6918462037BD4680BD00BF9C
:1012780080B500AF00F0D2FD00BF80BD80B582B060
:1012880000AF0346FB8000F0BFFDFB88DBB2002106
:10129800184600F0F5FD034618460837BD4680BDE0
:1012A80080B584B000AF03463960FB801346BB802D
:1012B8000023FB60FB880021184600F0D1F90246A4
:1012C800FB681344FB60FB6818461037BD4680BDB9
:1012D80080B584B000AF0346FB800023FB60FB8829
:1012E8000121184600F0BCF90246FB681344FB6074
:1012F800FB88DBB201220221184600F017FC0346E6
:101308001A46FB681344FB60FB6818461037BD4655
:1013180080BD80B584B000AF0346FB800023FB602E
:10132800FB880021184600F09BF90246FB6813442D
:10133800FB60FB6818461037BD4680BD80B584B099
:1013480000AF03463960FB800023FB60314B1B680C
:10135800002B5AD0FB880121184600F081F902467B
:10136800FB681344FB603B68022B4ED0FB88DBB262
:101378004FF400724FF48461184600F0D7FB03461F
:101388001A46FB681344FB60FB88DBB24FF400721B
:1013980040F22241184600F0C9FB03461A46FB6892
:1013A8001344FB60FB88DBB200222D21184600F0B5
:1013B800BDFB03461A46FB681344FB60FB88DBB29F
:1013C80000222E21184600F0B1FB03461A46FB689E
:1013D8001344FB60FB88DBB200220521184600F0AD
:1013E800A5FB03461A46FB681344FB60FB88DBB287
:1013F80000220021184600F099FB03461A46FB68B4
:101408001344FB60034B00221A60FB681846103730
:10141800BD4680BD7800002080B584B000AF03468B
:101428000A46FB8013467B710023FB607B79642BA3
:101438000BD87A7913469B019B1A864A82FB0312C2
:101448005211DB17D31ADBB200E06423FB72824B24
:101458001B68002B00F09B80FB7A3E2B3DD9FB8854
:101468000021184600F0FCF80246FB681344FB60B4
:10147800FB88DBB240F27F121C21184600F056FBB5
:1014880003461A46FB681344FB60FB88DBB240F254
:101498007F121D21184600F049FB03461A46FB68D7
:1014A8001344FB60FB88DBB240F27F12262118460A
:1014B80000F03CFB03461A46FB681344FB60FB88BC
:1014C800DBB240F27F122721184600F02FFB0346BB
:1014D8001A46FB681344FB6059E07B79002B09D15D
:1014E800FB880121184600F0BBF80246FB6813444C
:1014F800FB604CE0FB880021184600F0B1F802467A
:10150800FB681344FB60FB88D8B2FB7A1BB243F438
:10151800A0731BB29BB21A461C2100F007FB0346BE
:101528001A46FB681344FB60FB88D8B2FB7A1BB2EF
:1015380043F4A0731BB29BB21A461D2100F0F6FAC1
:1015480003461A46FB681344FB60FB88D8B2FB7A53
:101558001BB243F4A0731BB29BB21A46262100F0BB
:10156800E5FA03461A46FB681344FB60FB88D8B2C9
:10157800FB7A1BB243F4A0731BB29BB21A46272115
:1015880000F0D4FA03461A46FB681344FB60334B59
:101598001B68002B59D07B79632B0CD87A791346BA
:1015A8001B019B1A1B012B4A82FB03125211DB17EA
:1015B800D31ADBB200E0EF23FB72FB88D8B2FB7AC8
:1015C8001BB243F480731BB29BB21A464FF480617E
:1015D80000F0ACFA03461A46FB681344FB60FB882C
:1015E800D8B2FB7A1BB243F480731BB29BB21A4683
:1015F80040F2014100F09AFA03461A46FB68134488
:10160800FB60FB88D8B2FB7A1BB243F480731BB231
:101618009BB21A4640F2044100F088FA03461A4683
:10162800FB681344FB60FB88D8B2FB7A1BB243F417
:1016380080731BB29BB21A4640F2054100F076FA5D
:1016480003461A46FB681344FB60FB6818461037CC
:10165800BD4680BD1F85EB51780000207C0000202E
:1016680080B584B000AF03463960FB800023FB607F
:10167800214B1B68002B39D03B68012B1CD1FB8800
:10168800DBB24FF400724FF48461184600F04EFA52
:1016980003461A46FB681344FB60FB88DBB24FF431
:1016A800007240F22241184600F040FA03461A46FA
:1016B800FB681344FB6019E0FB88DBB210224FF48F
:1016C8008461184600F032FA03461A46FB68134450
:1016D800FB60FB88DBB2102240F22241184600F082
:1016E80025FA03461A46FB681344FB60FB68184654
:1016F8001037BD4680BD00BF7800002080B584B09B
:1017080000AF03460A46FB8013467B710023FB604B
:101718007B79032B00F08C80032B00F3CB80012B0B
:1017280002D0022B42D0C5E0FB88DBB240F60C4267
:101738000521184600F0FAF903461A46FB681344D7
:10174800FB60FB88DBB2002240F20161184600F022
:10175800EDF903461A46FB681344FB60FB88DBB2CD
:10176800002240F20261184600F0E0F903461A46EA
:10177800FB681344FB60FB88DBB2022240F2046181
:10178800184600F0D3F903461A46FB681344FB6079
:10179800FB88DBB2022240F20561184600F0C6F968
:1017A80003461A46FB681344FB60C5E0FB88DBB2BE
:1017B80040F203320521184600F0B8F903461A46EC
:1017C800FB681344FB60FB88DBB2012240F2016135
:1017D800184600F0ABF903461A46FB681344FB6051
:1017E800FB88DBB2012240F20261184600F09EF944
:1017F80003461A46FB681344FB60FB88DBB20022F1
:1018080040F20461184600F091F903461A46FB6855
:101818001344FB60FB88DBB2002240F205611846E6
:1018280000F084F903461A46FB681344FB6083E022
:10183800FB88DBB240F60F720521184600F076F9F6
:1018480003461A46FB681344FB60FB88DBB201229F
:1018580040F20161184600F069F903461A46FB6830
:101868001344FB60FB88DBB2012240F20261184698
:1018780000F05CF903461A46FB681344FB60FB88DA
:10188800DBB2022240F20461184600F04FF9034629
:101898001A46FB681344FB60FB88DBB2022240F265
:1018A8000561184600F042F903461A46FB681344DE
:1018B800FB6041E0FB88DBB240F2033205211846A9
:1018C80000F034F903461A46FB681344FB60FB88B2
:1018D800DBB2012240F20161184600F027F9034605
:1018E8001A46FB681344FB60FB88DBB2012240F216
:1018F8000261184600F01AF903461A46FB681344B9
:10190800FB60FB88DBB2002240F20461184600F05D
:101918000DF903461A46FB681344FB60FB88DBB2EB
:10192800002240F20561184600F000F903461A4605
:10193800FB681344FB6000BFFB6818461037BD46C0
:1019480080BD000080B584B000AF03463960FB80DD
:101958000023FB603B68644A934279D03B68624A43
:10196800934200F2AD803B684BF68032934261D0DF
:101978003B684BF68032934200F2A2803B684AF6FD
:101988004442934200F08E803B684AF644429342B8
:1019980000F296803B68B3F5FA4F3DD03B68B3F54B
:1019A800FA4F00F28D803B6845F2226293426BD079
:1019B8003B6845F22262934200F282803B68B3F5AD
:1019C8007A5F1BD03B68B3F57A5F79D83B68B3F58B
:1019D800FA5F05D03B6842F61132934246D06FE079
:1019E800FB88DBB203224FF40471184600F09EF81E
:1019F80003461A46FB681344FB606FE0FB88DBB2C2
:101A080033224FF40471184600F090F803461A4642
:101A1800FB681344FB6061E0FB88DBB263224FF490
:101A28000471184600F082F803461A46FB6813440E
:101A3800FB6053E0FB88DBB283224FF40471184645
:101A480000F074F803461A46FB681344FB6045E04F
:101A5800FB88DBB2A3224FF40471184600F066F845
:101A680003461A46FB681344FB6037E0FB88DBB289
:101A780013224FF40471184600F058F803461A462A
:101A8800FB681344FB6029E0FB88DBB243224FF478
:101A98000471184600F04AF803461A46FB681344D6
:101AA800FB601BE0FB88DBB273224FF4047118461D
:101AB80000F03CF803461A46FB681344FB600DE04F
:101AC800FB88DBB283224FF40471184600F02EF82D
:101AD80003461A46FB681344FB6000BFFB681846C0
:101AE8001037BD4680BD00BF0077010080B584B0C7
:101AF80000AF0346FB800023FB60FB88DBB20022BB
:101B08000021184600F012F80346FB60054B00223E
:101B18001A60054B00221A60FB6818461037BD464C
:101B280080BD00BF780000207C00002080B584B014
:101B380000AF0346FB710B46BB8013467B80002336
:101B4800FB607A88B988FB79184600F06FF9FB6862
:101B5800DBB218461037BD4680BD000080B58CB09A
:101B680000AF78607B68514A93424DD1504B1B6B54
:101B78004F4A43F0800313634D4B1B6B03F0800304
:101B8800BB61BB698023FB6112233B6200237B623C
:101B98000223BB620423FB6207F11C031946454874
:101BA80002F09CF84FF48073FB6107F11C0319469F
:101BB800404802F093F83E4B1B6C3D4A43F4000347
:101BC80013643B4B1B6C03F400037B617B69384B4C
:101BD8001B6A374A43F400031362354B1B6A344AC5
:101BE80023F40003136200220F21482001F0D7FAE2
:101BF800482001F0F0FA00220F21492001F0CFFA25
:101C0800492001F0E8FA4DE0294B1B6B284A43F0C4
:101C180002031363264B1B6B03F002033B613B6912
:101C28004FF48073FB6112233B6200237B62022323
:101C3800BB620423FB6207F11C0319461E4802F02D
:101C48004DF84FF40073FB6107F11C0319461A485D
:101C580002F044F8164B1B6C154A43F40013136446
:101C6800134B1B6C03F40013FB60FB68104B1B6ADF
:101C78000F4A43F4001313620D4B1B6A0C4A23F4FA
:101C88000013136200220F211F2001F088FA1F2081
:101C980001F0A1FA00220F21202001F080FA202073
:101CA80001F099FA00BF3037BD4680BD80000020A2
:101CB80000380240001C02400004024080B582B097
:101CC80000AF7860786802F0E7FD0346002B25D165
:101CD8007B68144A934203D17B68134A1A6002E076
:101CE8007B68124A1A607B68114A5A607B68002236
:101CF8009A607B680122DA607B6800221A617B683F
:101D080000225A617B680022DA617B6800221A622D
:101D18007868FFF723FF786802F0B2FA00BF083747
:101D2800BD4680BD80000020005C0040005400409B
:101D38003227914080B58AB004AFF8600846114652
:101D48001A460346FB720B463B811346FB80002371
:101D5800FB75FB7A99B2F8883A894FF47A73029343
:101D6800BB8C01933B6A00930346F86802F06EFC53
:101D78000346FB75FB7D002B04D0FB7A1946F868F7
:101D880000F032F8FB7D18461837BD4680BD80B597
:101D98008AB004AFF860084611461A460346FB723B
:101DA8000B463B811346FB800023FB75FB7A99B2F7
:101DB800F8883A894FF47A730293BB8C01933B6A93
:101DC80000930346F86802F01BFB0346FB75FB7D96
:101DD800002B04D0FB7A1946F86800F005F8FB7D63
:101DE80018461837BD4680BD80B582B000AF786010
:101DF8000B46FB70786802F0D3FA7868FFF75EFF4D
:101E080000BF0837BD4680BD80B500AF0248FFF768
:101E180055FF00BF80BD00BF8000002080B400AF28
:101E280000BFBD465DF8047B7047000080B586B0F2
:101E380002AF0346FB710B46BB8013467B807B8851
:101E4800FB81FB891B0A9BB27B80FB891B029BB22F
:101E58001AB27B881BB213431BB29BB27B80BA8831
:101E6800F97902230193BB1C009302230348FFF76F
:101E78008EFF00BF1037BD4680BD00BF8000002028
:101E880080B586B002AF03460A46FB711346BB8095
:101E98000023BB810023FB81BA88F97902230193CF
:101EA80007F10C03009302230A48FFF743FFBB899D
:101EB8001B0AFB81BB891B029BB21AB2B7F90E3011
:101EC80013431BB2FB81FB89BB81BB8918461037C2
:101ED800BD4680BD8000002080B582B000AF78602C
:101EE800786801F061F800BF0837BD4680BD000082
:101EF80080B500AF314B28225A61304B09229A61D4
:101F08002E4B3522DA612D4B0B221A622B4B40F2F5
:101F18001B129A62294B40F215225A62274B40F253
:101F28001D121A63254B40F23522DA62002123483C
:101F380000F0B4FC214B4FF4F0721A661F4B4FF4BB
:101F480088725A661D4B002283F834201B4B0022EE
:101F580083F83520194B002283F83620174B0022CE
:101F68005A60164B00229A60144B0022DA60134B19
:101F780000221A61114B124A1A60104803F03EF908
:101F88000346002B03D100210C4800F0ADFB0B48A1
:101F980002F050FF01224FF480510A4802F056F92E
:101FA80001220821084802F051F900F0DBFD07483A
:101FB80000F0D8F80023184680BD00BF0C4100206F
:101FC8000068014000200240002802403400002040
:101FD80080B400AF064B1B68064A342101FB03F3AB
:101FE800134460331B681846BD465DF8047B704790
:101FF8000C0100200C41002080B400AF064B1B6888
:10200800064A342101FB03F3134464331B68184662
:10201800BD465DF8047B70470C0100200C41002090
:1020280080B590B000AF03463960FB800023FB60A9
:10203800FFF7CEFF03463B6100237B61FFF7DCFF20
:102048000346BB610023FB613B683B63FF233B62A4
:1020580000237B62002387F83C30002387F83D305B
:10206800002387F83E304FF4C063BB620723FB624E
:10207800FFF7AEFF03467B63FFF7BEFF0346BB6374
:10208800FA8807F10C031946124803F079F8FA8820
:10209800114913465B0013449B000B4404334FF073
:1020A800FF321A60FA880C4913465B0013449B0000
:1020B8000B440833094A1A60FA88074913465B003B
:1020C80013449B000B444FF07F421A6000BF403717
:1020D800BD4680BD0C4100201001002034000020C6
:1020E80080B483B000AF7860044A7B68136000BF97
:1020F8000C37BD465DF8047B704700BF0C0100201B
:1021080080B483B000AF7860074B1A68074913465C
:102118005B0013449B000B447A681A6000BF0C37BD
:10212800BD465DF8047B70470C01002010010020BB
:1021380080B483B000AF7860084B1A68084913462A
:102148005B0013449B000B4404337A681A6000BF99
:102158000C37BD465DF8047B704700BF0C010020BA
:102168001001002080B483B000AF7860084B1A6873
:10217800084913465B0013449B000B4408337A68F4
:102188001A6000BF0C37BD465DF8047B704700BF7E
:102198000C01002010010020F0B585B002AF786076
:1021A8000F4B1C680E4B1B680E4A342101FB03F3CE
:1021B80013445C331B681E46FFF70AFF0546FFF70A
:1021C8001BFF02467B6801930023009313462A46AF
:1021D8003146204600F036FC00BF0C37BD46F0BD46
:1021E8000C0100200C41002090B583B000AF0346DD
:1021F800FB800B46BB801346FB701B4B1A681B49C0
:1022080013465B0013449B000B4408331B68196892
:10221800FB78A3F12000144B1A68144C13465B009A
:1022280013449B00234408331B68DB8803FB00F03E
:102238000D4B1A680D4C13465B0013449B00234456
:1022480008331B689B880733002B00DA0733DB1041
:1022580003FB00F3CA18B988FB88184600F03AFB5C
:1022680000BF0C37BD4690BD0C01002010010020B6
:10227800B0B588B000AFBA601A460346FB810B467A
:10228800BB811346FB710123FB830023BB8300231F
:10229800BB6100233B61BB687B6102E0BB69013322
:1022A800BB617B695A1C7A611B78002BF6D1FFF75A
:1022B8008FFE0146504B1A68504813465B00134482
:1022C8009B00034408331B689B88B1FBF3F33B6115
:1022D800FB79032B1CD0032B33DC012B02D0022B00
:1022E80019D02EE03A69BB69D11A434B1A684348A2
:1022F80013465B0013449B00034408331B689B8808
:1023080003FB01F35B089AB2FB891344FB831BE0D0
:10231800FB89FB8318E03A69BB69D31A99B2364B3B
:102328001A68364813465B0013449B00034408337D
:102338001B689B8811FB03F39AB2FB89D31AFB83B2
:1023480002E0FB89FB8300BFFB8B002B03D0B7F9AE
:102358001E30002B1DDA0123FB831AE0BB681A78B4
:10236800B989FB8B1846FFF73FFF234B1A682349AF
:1023780013465B0013449B000B4408331B689A8880
:10238800FB8B1344FB83BB680133BB60BB8B0133FE
:10239800BB83BB681B78002B14BF01230023DCB26E
:1023A800FFF716FEB98B144B1A68144D13465B00E1
:1023B80013449B002B4408331B689B8803FB01F3E1
:1023C800C31A99B20C4B1A680C4813465B001344A5
:1023D8009B00034408331B689B8899422CBF012348
:1023E8000023DBB22340DBB2002BB7D100BF00BF14
:1023F8002037BD46B0BD00BF0C01002010010020F1
:10240800B0B582B000AF03463A60FB800B46BB8094
:102418001D4B1B681D4A342101FB03F31344483349
:102428001B68022B16D1184B1B68184A342101FB74
:1024380003F313445C331C68BD88FFF7C9FD0346EA
:1024480003FB05F2FB8813445B0023443A6892B20D
:102458001A8015E00C4B1B680C4A342101FB03F36E
:1024680013445C331C68BD88FFF7B2FD034603FBC9
:1024780005F2FB8813449B0023441A463B6813600B
:1024880000BF0837BD46B0BD0C0100200C4100203C
:1024980090B58BB000AFF860B9607A6000237B62BA
:1024A8000023BB6100237B6100233B610023FB61A8
:1024B8007B680A331B781A467B680B331B781B0230
:1024C8001A447B680C331B781B041A447B680D3351
:1024D8001B781B0613447B627B6812331B781A46F1
:1024E8007B6813331B781B021A447B6814331B78F0
:1024F8001B041A447B6815331B781B061344BB6105
:102508007B6816331B781A467B6817331B781B02C7
:102518001A447B6818331B781B041A447B681933E8
:102528001B781B0613447B617B681C331B781A4697
:102538007B681D331B781B0213443B612B4B1B68C4
:102548002B4A342101FB03F313445C331C68FFF767
:102558003FFD0246BB6803FB02F2FB6813449B0085
:1025680023443B623B69203B072B02D80023FB61D5
:1025780008E03B69103B072B02D80223FB6101E00E
:102588000123FB617B69013BBA6902FB03F33A69EA
:10259800D20802FB03F27B6A13447A6813447B6017
:1025A80000237B6218E0396AFB69BA69786800F031
:1025B80095FAFFF70DFD03469B003A6A13443B6208
:1025C8003B69DB08BA6902FB03F35B427A68134490
:1025D8007B607B6A01337B627A6A7B699A42E2D3C9
:1025E80000BF00BF2C37BD4690BD00BF0C010020C6
:1025F8000C4100202DE9F04186B002AF04460846A0
:1026080011461A462346FB800346BB800B467B8057
:1026180013463B800023FB60304B1A683049134651
:102628005B0013449B000B441B681846FFF768FDCA
:102638002A4B1B682B4A342101FB03F3134448330C
:102648001B68022B14D1254B1B68264A342101FB39
:1026580003F313445C331C68FFF7BAFC0246BB88DB
:1026680003FB02F2FB8813445B002344FB6013E086
:102678001A4B1B681B4A342101FB03F313445C33D8
:102688001C68FFF7A5FC0246BB8803FB02F2FB8827
:1026980013449B002344FB60104B1C68FD687E8834
:1026A800B7F80080FFF794FC02467B88D11A0B4BE1
:1026B8001A680B4813465B0013449B0003441B68CD
:1026C80001930091434632462946204600F0BAF964
:1026D80000BF1037BD46BDE8F08100BF0C010020E7
:1026E800100100200C41002080B590B000AF786048
:1026F8003960644B5B6C634A43F080635364614B9D
:102708005B6C03F08063BB62BB6A5E4B1B6B5D4A0C
:1027180043F4000313635B4B1B6B03F400037B62FE
:102728007B6A584B1B6B574A43F010031363554B96
:102738001B6B03F010033B623B6A524B1B6B514A05
:1027480043F0400313634F4B1B6B03F04003FB61E3
:10275800FB694C4B1B6B4B4A43F480731363494B27
:102768001B6B03F48073BB61BB69464B1B6B454A0B
:1027780043F400731363434B1B6B03F400737B61D7
:102788007B69404B1B6B3F4A43F4806313633D4BAB
:102798001B6B03F480633B613B693A4B1B6B394A03
:1027A80043F480731363374B1B6B03F48073FB6034
:1027B800FB68344B1B6B334A43F480631363314B20
:1027C8001B6B03F48063BB60BB681023FB620223AE
:1027D8003B6300237B630223BB630E23FB6307F188
:1027E8002C031946284801F079FA4FF48053FB620C
:1027F80002233B630923FB6307F12C031946234893
:1028080001F06CFA4FF46643FB6202233B630E232C
:10281800FB6307F12C0319461D4801F05FFA4EF6D9
:10282800FF73FB6202233B630E23FB6307F12C0358
:102838001946184801F052FAF723FB6202233B635A
:102848000E23FB6307F12C031946134801F046FADF
:102858004FF48053FB6201233B6307F12C031946B5
:102868000B4801F03BFA0823FB6201233B6307F1A5
:102878002C031946084801F031FA00BF4037BD461D
:1028880080BD00BF0038024000100240001802401E
:1028980000200240002402400028024080B582B097
:1028A80000AF786039600A4B08221A60084BC022D2
:1028B8005A61074B0522DA61054B4FF48032DA6220
:1028C800034803F0EBFA00BF0837BD4680BD00BFE0
:1028D8002801002080B588B000AF03463A60FB802D
:1028E8000B46BB800023FB610023BB61534B1A6876
:1028F800534913465B0013449B000B4408331B6881
:10290800DB887B824D4B1A684D4913465B001344A4
:102918009B000B4408331B689B883B823B8A073328
:10292800002B00DA0733DB10DBB2DB00DAB23B8ABC
:10293800DBB2D31AFB730023FB6176E03B8A0733D3
:10294800002B00DA0733DB101A46FB6903FB02F39E
:102958003A681344BB603B8A0733002B00DA07331D
:10296800DB10012B02D0022B04D00CE0BB681B78D3
:102978007B6116E0BB681B781B02BA6801321278CB
:1029880013437B610DE0BB681B781A04BB680133F5
:102998001B781B021343BA680232127813437B6117
:1029A80000BF0023BB6136E03A8ABB69D21AFB7BC1
:1029B8001344013B012202FA03F31A467B691340D0
:1029C800002B12D0BB699AB2FB88134498B21B4BF8
:1029D8001A681B4913465B0013449B000B441A6892
:1029E800BB881946FFF70CFD12E0BB699AB2FB8859
:1029F800134498B2114B1A68114913465B001344EB
:102A08009B000B4404331A68BB881946FFF7F8FC8F
:102A1800BB690133BB613B8ABA699A42C4D3BB889C
:102A28000133BB80FB690133FB617B8AFA699A42F7
:102A380084D300BF00BF2037BD4680BD0C010020F5
:102A48001001002080B586B002AFF860B9607A60E6
:102A58003B601E4B4FF440325A601D4B1B681D4AA9
:102A6800342101FB03F3134448331B68022B03D1C1
:102A7800164B02229A6002E0144B00229A60134A15
:102A8800BB69D360114B144A1A60104800F07CFDF2
:102A98000346002B15D1F9680C4800F0E3FF034604
:102AA800002B0ED1BA683B6800937B68F969074828
:102AB80000F0B4FD0346002B03D10A21034800F0BF
:102AC800D8FD00BF1037BD4680BD00BFCC00002038
:102AD8000C0100200C41002000B0024080B586B0F7
:102AE80002AFF860B9607A603B601C4B4FF48032EB
:102AF8005A601A4B00229A60184B0022DA60174B72
:102B080000221A63154BFF225A63144A3B68D362AA
:102B1800124B00229A62114B114A1A600F4800F0BA
:102B280033FD0346002B15D101210C4800F09AFF14
:102B38000346002B0ED1F968BA68012300937B681D
:102B4800064800F06BFD0346002B03D10A21034819
:102B580000F08FFD00BF1037BD4680BDCC000020BF
:102B680000B0024080B500AF294B2A4A1A602A4BB0
:102B780002221A60284B07225A60274B04229A60C7
:102B8800254B0722DA60244B02221A61224B0222CB
:102B98005A61214B02229A611D4B00225A601C4B3C
:102BA80000229A601A4B0422DA60194B10221A612B
:102BB800174B40225A61164B4FF480729A61144B9E
:102BC8000022DA61124B4FF400621A62104B4FF484
:102BD80080525A620E4B00229A6200210C4800F083
:102BE8007FF80D490A4804F01FFA0346002B03D06A
:102BF8000A4B01221A7002E0084B00221A7040F2B8
:102C0800036000F00DF8054B1B78184680BD00BF27
:102C1800B4410020400100A0AC0100204C0000207D
:102C280080B584B000AF78600023FB602A4B012296
:102C38001A60294B10225A60274B01229A60264BB2
:102C48000022DA604FF6FF722349244804F020FA84
:102C5800012000F0A9F9204B02221A601E4B102215
:102C68005A601D4B01229A601B4B0022DA604FF616
:102C7800FF721949194804F00BFA174B03221A601E
:102C8800154B10225A60144B08229A60124B0022EE
:102C9800DA604FF6FF721049104804F0F9F94FF462
:102CA8000873FB600C4B04221A600B4B10225A600D
:102CB800094B01229A60FB68074AD3604FF6FF72FE
:102CC8000549064804F0E4F97968044804F00BFA69
:102CD80000BF1037BD4680BDC8010020B4410020A8
:102CE80080B590B000AF78603960704B9B6B6F4ACD
:102CF80043F0010393636D4B9B6B03F00103BB62CD
:102D0800BB6A6A4B1B6B694A43F480031363674BC6
:102D18001B6B03F480037B627B6A644B1B6B634A07
:102D280043F004031363614B1B6B03F004033B6222
:102D38003B6A5E4B1B6B5D4A43F0080313635B4BB6
:102D48001B6B03F00803FB61FB69584B1B6B574A6D
:102D580043F010031363554B1B6B03F01003BB6167
:102D6800BB69524B1B6B514A43F0200313634F4B13
:102D78001B6B03F020037B617B694C4B1B6B4B4A3D
:102D880043F040031363494B1B6B03F040033B6163
:102D98003B69464B1B6B454A43F080031363434B27
:102DA8001B6B03F08003FB60FB6802233B6301237A
:102DB8007B630223BB630C23FB630823FB6207F1DD
:102DC8002C0319463A4800F089FF4CF20373FB6262
:102DD80007F12C031946374800F080FF4FF683733C
:102DE800FB6207F12C031946334800F077FF4FF6D2
:102DF8003F03FB6207F12C031946304800F06EFFD1
:102E080048F23313FB6207F12C0319462C4800F0F3
:102E180065FF2823FB6207F12C031946294800F0B7
:102E28005DFF294B00225A60274B80229A60264B6F
:102E38004FF40072DA60244B4FF480621A61224B1F
:102E48004FF480525A61204B4FF480429A611E4BD6
:102E58000022DA611C4B4FF400321A621A4B00222E
:102E68005A62194B03229A62174B0022DA62164BF8
:102E780000221A63144B154A1A607B68124A1A63B7
:102E8800114A7B689363104800F06EFA0E4800F010
:102E9800BDF900220F21382000F081F9382000F018
:102EA8009AF900BF4037BD4680BD00BF00380240D8
:102EB80000080240000C02400010024000140240CA
:102EC80000180240001C0240D80100201064024093
:102ED80080B500AF0B4B1B680A4A43F400731360BC
:102EE800084B1B68074A43F480731360032000F003
:102EF8004BF90F2000F008F806F010FF00231846E1
:102F080080BD00BF003C024080B582B000AF786051
:102F1800124B1A68124B1B7819464FF47A73B3FB9D
:102F2800F1F3B2FBF3F3184600F063F90346002B04
:102F380001D001230EE07B680F2B0AD800227968A4
:102F48004FF0FF3000F02BF9064A7B68136000232E
:102F580000E0012318460837BD4680BD5800002010
:102F6800540000205000002080B400AF064B1B78AE
:102F78001A46064B1B681344044A136000BFBD463B
:102F88005DF8047B704700BF54000020E841002032
:102F980080B400AF034B1B681846BD465DF8047B40
:102FA800704700BFE841002080B584B000AF78606A
:102FB800FFF7EEFFB8607B68FB60FB68B3F1FF3F8B
:102FC80005D00A4B1B781A46FB681344FB6000BF08
:102FD800FFF7DEFF0246BB68D31AFA689A42F7D8B1
:102FE80000BF00BF1037BD4680BD00BF54000020A1
:102FF80080B485B000AF78607B6803F00703FB609E
:103008000B4BDB68BB60BA684FF6FF031340BB602D
:10301800FB681A02BB681A43064B1343BB60044A99
:10302800BB68D36000BF1437BD465DF8047B7047AA
:1030380000ED00E00000FA0580B400AF044BDB6847
:103048001B0A03F007031846BD465DF8047B70476A
:1030580000ED00E080B483B000AF0346FB71FB795C
:1030680003F01F02074997F907305B09012000FAAE
:1030780002F241F8232000BF0C37BD465DF8047BFF
:10308800704700BF00E100E080B483B000AF0346A2
:103098003960FB7197F90730002B0BDA3B68DAB21D
:1030A8000C49FB7903F00F03043B1201D2B20B4425
:1030B8001A7609E03B68DAB2074997F90730120136
:1030C800D2B20B4483F8002300BF0C37BD465DF82D
:1030D800047B704700ED00E000E100E080B489B0B7
:1030E80000AFF860B9607A60FB6803F00703FB6122
:1030F800FB69C3F10703042B28BF0423BB61FB69E9
:103108000433062B02D9FB69033B00E000237B61F3
:103118004FF0FF32BB6902FA03F3DA43BB681A4087
:103128007B699A404FF0FF317B6901FA03F3D94379
:103138007B680B40134318462437BD465DF8047B73
:103148007047000080B582B000AF78607B68013BB3
:10315800B3F1807F01D301230FE00A4A7B68013B6A
:1031680053600F214FF0FF30FFF78EFF054B002211
:103178009A60044B07221A60002318460837BD4698
:1031880080BD00BF10E000E080B582B000AF78607D
:103198007868FFF72DFF00BF0837BD4680BD80B5B2
:1031A80086B000AF0346B9607A60FB7300237B6189
:1031B800FFF742FF78617A68B9687869FFF78EFF90
:1031C800024697F90F3011461846FFF75DFF00BF1A
:1031D8001837BD4680BD80B582B000AF0346FB718D
:1031E80097F907301846FFF735FF00BF0837BD4687
:1031F80080BD80B582B000AF78607868FFF7A2FF25
:10320800034618460837BD4680BD000080B586B025
:1032180000AF786000237B61FFF7BAFE38617B68F6
:10322800002B01D1012399E07B68002283F8342028
:103238007B68022283F835207B681B681A687B68E4
:103248001B6822F001021A600FE0FFF7A1FE024698
:103258003B69D31A052B08D97B6820225A657B68FD
:10326800032283F83520032378E07B681B681B68FA
:1032780003F00103002BE8D17B681B681B687B61A6
:103288007A69384B13407B617B685A687B689B6816
:103298001A437B68DB681A437B681B691A437B689F
:1032A8005B691A437B689B691A437B68DB691A432D
:1032B8007B681B6A13437A6913437B617B685B6A8B
:1032C800042B07D17B68DA6A7B681B6B13437A6926
:1032D80013437B617B681B687A691A607B681B688B
:1032E8005B697B617B6923F007037B617B685B6AB1
:1032F8007A6913437B617B685B6A042B17D17B680F
:103308009B6A7A6913437B617B68DB6A002B0ED06A
:10331800786800F0BDF80346002B08D07B6840228F
:103328005A657B68012283F83520012316E07B6803
:103338001B687A695A61786800F074F80346FB6084
:103348007B68DB6D3F229A40FB689A607B680022AD
:103358005A657B68012283F8352000231846183700
:10336800BD4680BD3F8010F080B584B000AF786066
:103378007B68002B01D1012350E07B6893F835303E
:10338800DBB2022B01D1022348E07B681B681A6874
:103398007B681B6822F001021A607B681B680022A8
:1033A8001A607B681B6800225A607B681B680022D1
:1033B8009A607B681B680022DA607B681B680022C1
:1033C8001A617B681B6821225A61786800F02AF824
:1033D8000346FB607B68DB6D3F229A40FB689A607E
:1033E8007B680022DA637B6800221A647B6800220B
:1033F8005A647B6800229A647B680022DA647B68DE
:1034080000221A657B6800225A657B68002283F8CF
:1034180035207B68002283F83420002318461037B3
:10342800BD4680BD80B485B000AF78607B681B68FE
:10343800DBB2103B134AA2FB03231B09FB60124AB1
:10344800FB6813441B781A467B68DA65FB68032B14
:1034580008D97B681B681A460C4B13401A1D7B68F9
:103468009A6506E07B681B681A46084B13407A6821
:1034780093657B689B6D18461437BD465DF8047BE1
:10348800704700BFABAAAAAAC0D2000800FCFFFF81
:1034980080B485B000AF78600023FB737B689B6ABB
:1034A800BB607B689B69002B1FD1BB68032B56D878
:1034B80001A252F823F000BFD1340008E334000819
:1034C800D1340008673500087B68DB6A03F0807335
:1034D800002B46D00123FB7343E07B68DB6AB3F122
:1034E800C07F40D10123FB733DE07B689B69B3F546
:1034F800005F21D1BB68032B37D801A252F823F013
:10350800193500081F35000819350008313500083D
:103518000123FB7330E07B68DB6A03F08073002BC8
:1035280025D00123FB7322E07B68DB6AB3F1C07FFF
:103538001FD10123FB731CE0BB68022B03D9BB68B6
:10354800032B03D018E00123FB7315E07B68DB6ACB
:1035580003F08073002B0ED00123FB730BE000BF38
:103568000AE000BF08E000BF06E000BF04E000BFBB
:1035780002E000BF00E000BFFB7B18461437BD46E1
:103588005DF8047B704700BF80B582B000AF7860FB
:103598007B68002B01D1012339E07B6893F839302F
:1035A800DBB2002B06D17B68002283F838207868CC
:1035B80006F0D8FB7B68022283F839207B681B68F9
:1035C8001B6823F440317B685A687B681B680A4390
:1035D8001A607B681B685B6B23F007017B689A683D
:1035E8007B681B680A435A637B681B681A6C0A4B22
:1035F80013407A68D1687A6812680B4313647B6851
:103608000022DA637B68012283F8392000231846F8
:103618000837BD4680BD00BF00C0FFFF80B586B03B
:1036280002AFF860B9607A603B60FB6893F83830A5
:10363800012B01D1022318E0FB68012283F838200E
:10364800FB68022283F83920BB6900933B687A68DB
:10365800B968F86800F09CFAFB681B681A68FB6890
:103668001B6842F001021A60002318461037BD4655
:1036780080BD80B584B000AF786039600023FB60FE
:103688000023BB607B681B681B6803F00103002BE9
:1036980056D0FFF77DFCF8604BE07B681B685B68E1
:1036A800BB60BB6803F02103002B23D0BB6803F089
:1036B8002003002B05D07B68DB6B43F002027B689C
:1036C800DA63BB6803F00103002B05D07B68DB6B72
:1036D80043F001027B68DA637B681B6821229A60E9
:1036E8007B68042283F839207B68002283F838201D
:1036F8000123A2E03B68B3F1FF3F1AD03B68002BDF
:1037080007D0FFF745FC0246FB68D31A3A689A428D
:103718000FD27B68DB6B43F020027B68DA637B683F
:10372800032283F839207B68002283F8382003239A
:1037380083E07B681B685B6803F00203002BACD056
:103748007B681B68DB6903F02003002B06D17B68CC
:103758001B685B6A03F02003002B61D0FFF718FC9D
:10376800F86056E07B681B685B68BB60BB6803F069
:103778002903002B2ED0BB6803F00803002B05D0CB
:103788007B68DB6B43F004027B68DA63BB6803F099
:103798002003002B05D07B68DB6B43F002027B68BB
:1037A800DA63BB6803F00103002B05D07B68DB6B91
:1037B80043F001027B68DA637B681B6829229A6000
:1037C8007B68042283F839207B68002283F838203C
:1037D800012332E03B68B3F1FF3F1AD03B68002B6E
:1037E80007D0FFF7D5FB0246FB68D31A3A689A421E
:1037F8000FD27B68DB6B43F020027B68DA637B685F
:10380800032283F839207B68002283F838200323B9
:1038180013E07B681B685B6803F01003002BA1D0E2
:103828007B681B6812229A607B68012283F8392022
:103838007B68002283F83820002318461037BD46DD
:1038480080BD80B584B000AF78607B681B685B681A
:10385800FB607B681B681B68BB60FB6803F00103A7
:10386800002B26D0BB6803F48073002B21D07B6823
:103878001B681A687B681B6822F480721A607B6870
:10388800DB6B43F001027B68DA637B681B6801220B
:103898009A607B68042283F839207B68002283F8C9
:1038A80038207B685B69002B03D07B685B6978688C
:1038B8009847FB6803F02003002B26D0BB6803F46D
:1038C8000053002B21D07B681B681A687B681B6833
:1038D80022F400521A607B681B6820229A607B6879
:1038E800DB6B43F002027B68DA637B68042283F8AF
:1038F80039207B68002283F838207B685B69002BBD
:1039080003D07B685B6978689847FB6803F0080315
:10391800002B26D0BB6803F40063002B21D07B6802
:103928001B681A687B681B6822F400621A607B684F
:103938001B6808229A607B68DB6B43F004027B6893
:10394800DA637B68042283F839207B68002283F8D5
:1039580038207B685B69002B03D07B685B697868DB
:103968009847FB6803F00403002B13D0BB6803F4EB
:103978008063002B0ED07B681B681A687B681B6805
:1039880022F480621A607B681B6804229A60786857
:1039980000F053F8FB6803F00203002B24D0BB6847
:1039A80003F40073002B1FD07B681B681A687B68C0
:1039B8001B6822F400721A607B681B6802229A60F6
:1039C8007B68DA6B7B68DA637B68012283F83920CD
:1039D8007B68002283F838207B681B69002B03D0A2
:1039E8007B681B6978689847FB6803F01003002B15
:1039F8001FD0BB6803F48053002B1AD07B681B6868
:103A08001A687B681B6822F480521A607B681B68FE
:103A180010229A607B68DA6B7B68DA637B68012224
:103A280083F839207B68002283F83820786800F012
:103A38000EF800BF1037BD4680BD80B483B000AF1C
:103A4800786000BF0C37BD465DF8047B704780B4D2
:103A580083B000AF786000BF0C37BD465DF8047BCB
:103A68007047000080B487B000AF786039603B6869
:103A78001B0118337A6813443B610023FB60002361
:103A88007B617B685B68B3F5403F7B6893F83830AF
:103A9800012B01D1022373E07B68012283F83820CF
:103AA8007B68022283F839203B695A683B699B6826
:103AB8001B0413437B61354BFB603B695B680A2B36
:103AC80003D03B695B68092B07D13B69DB6803F0CE
:103AD8007F437A6913437B6105E03B69DB681B061A
:103AE8007A6913437B613B68002B20D17B681B6894
:103AF8005A6AFB68DB4302EA03017B681B687A6940
:103B08000A435A627B681B683A6912689A613B6982
:103B18005B680A2B03D03B695B68092B27D13B699B
:103B2800DA687B681B6822F07F429A621FE07B6834
:103B38001B68DA69FB68DB4302EA03017B681B68E0
:103B48007A690A43DA617B681B683A6912681A6104
:103B58003B695B680A2B03D03B695B68092B06D17C
:103B68003B69DA687B681B6822F07F421A627B68CF
:103B7800012283F839207B68002283F8382000234B
:103B880018461C37BD465DF8047B70470F0003FFDD
:103B980080B48BB000AFF860B9607A603B600023F6
:103BA8007B6200233B620023FB610023BB6100238F
:103BB8007B61FB681B685B6C03F040413B681A043F
:103BC8003B6B1A43FB681B680A435A64FB681B6813
:103BD8007A68DA63FB685B68B3F5403F74D1BB6809
:103BE80003F07F433B62BB6803F47F03FB61BB6860
:103BF80003F47F43BB61BB68DBB27B61FB689B68F6
:103C0800002B08D1BA69FB691A433B6A13437A69E6
:103C180013437B6253E0FB689B68012B06D1BA69AA
:103C2800FB6913437A6913437B6248E0FB689B682E
:103C3800022B11D1FB69DB0CFB61BB699B0ABB61E1
:103C48007B69DB087B61BB695A01FB69DB021343B3
:103C58007A6913437B6232E0FB689B68032B17D1B8
:103C68003B6ADB0F3B62FB69DB0CFB61BB69DB0A70
:103C7800BB617B69DB087B61BB695A01FB699B02FD
:103C88001A433B6ADB0313437A6913437B6216E0EA
:103C98003B6A1B0F3B62FB691B0DFB61BB691B0B7E
:103CA800BB617B691B097B61BB691A01FB691B024C
:103CB8001A433B6A1B0313437A6913437B62FB680D
:103CC8001B687A6A9A6303E0FB681B68BA68DA6063
:103CD80000BF2C37BD465DF8047B704780B489B0BF
:103CE80000AF786039600023FB6100237B6100230B
:103CF8003B610023BB610023FB6175E10122FB6985
:103D080002FA03F37B613B681B687A6913403B61E5
:103D18003A697B699A4240F064813B685B68022B90
:103D280003D03B685B68122B23D1FB69DA087B68F8
:103D3800083253F82230BB61FB6903F007039B008C
:103D48000F2202FA03F3DB43BA691340BB613B68F5
:103D58001A69FB6903F007039B0002FA03F3BA69C7
:103D68001343BB61FB69DA087B680832B96943F819
:103D780022107B681B68BB61FB695B00032202FAA7
:103D880003F3DB43BA691340BB613B685B6803F02C
:103D98000302FB695B0002FA03F3BA691343BB61D0
:103DA8007B68BA691A603B685B68012B0BD03B687B
:103DB8005B68022B07D03B685B68112B03D03B681C
:103DC8005B68122B30D17B689B68BB61FB695B0029
:103DD800032202FA03F3DB43BA691340BB613B6871
:103DE800DA68FB695B0002FA03F3BA691343BB6143
:103DF8007B68BA699A607B685B68BB610122FB6972
:103E080002FA03F3DB43BA691340BB613B685B68A2
:103E18001B0903F00102FB6902FA03F3BA691343B1
:103E2800BB617B68BA695A607B68DB68BB61FB6908
:103E38005B00032202FA03F3DB43BA691340BB6158
:103E48003B689A68FB695B0002FA03F3BA6913439B
:103E5800BB617B68BA69DA603B685B6803F08053D2
:103E6800002B00F0BE80664B5B6C654A43F48043D0
:103E78005364634B5B6C03F48043FB60FB68614AEB
:103E8800FB699B08023352F82330BB61FB6903F0DE
:103E980003039B000F2202FA03F3DB43BA691340C2
:103EA800BB617B68584A934237D07B68574A934234
:103EB80031D07B68564A93422BD07B68554A93424F
:103EC80025D07B68544A93421FD07B68534A93425B
:103ED80019D07B68524A934213D07B68514A934267
:103EE8000DD07B68504A934207D07B684F4A934273
:103EF80001D1092312E00A2310E008230EE007236A
:103F08000CE006230AE0052308E0042306E0032367
:103F180004E0022302E0012300E00023FA6902F032
:103F2800030292009340BA691343BB613549FB69A8
:103F38009B080233BA6941F823203D4B1B68BB61DB
:103F48003B69DB43BA691340BB613B685B6803F4B8
:103F58008033002B03D0BA693B691343BB61344AF1
:103F6800BB691360324B5B68BB613B69DB43BA6971
:103F78001340BB613B685B6803F40033002B03D03C
:103F8800BA693B691343BB61294ABB695360284B33
:103F98009B68BB613B69DB43BA691340BB613B6803
:103FA8005B6803F48013002B03D0BA693B691343A1
:103FB800BB611F4ABB6993601D4BDB68BB613B69F2
:103FC800DB43BA691340BB613B685B6803F40013C9
:103FD800002B03D0BA693B691343BB61144ABB6920
:103FE800D360FB690133FB61FB690F2B7FF686AE5B
:103FF80000BF00BF2437BD465DF8047B704700BF93
:10400800003802400038014000000240000402402D
:1040180000080240000C0240001002400014024058
:1040280000180240001C0240002002400024024008
:10403800003C014080B487B000AF7860396000234D
:104048003B610023FB600023BB6000237B61D9E058
:1040580001227B6902FA03F33B613A683B6913402A
:10406800FB60FA683B699A4240F0C9807B681A682D
:104078007B695B00032101FA03F3DB431A407B6889
:104088001A607B69DA087B68083253F822107B696A
:1040980003F007039B000F2202FA03F3DB437A695C
:1040A800D20819407B68083243F822107B689A6866
:1040B8007B695B00032101FA03F3DB431A407B6849
:1040C8009A607B685A6801217B6901FA03F3DB4334
:1040D8001A407B685A607B68DA687B695B00032159
:1040E80001FA03F3DB431A407B68DA604B4A7B69C9
:1040F8009B08023352F82330BB607B6903F003034B
:104108009B000F2202FA03F3BA681340BB607B6876
:10411800434A934237D07B68424A934231D07B6806
:10412800414A93422BD07B68404A934225D07B6812
:104138003F4A93421FD07B683E4A934219D07B681E
:104148003D4A934213D07B683C4A93420DD07B682A
:104158003B4A934207D07B683A4A934201D10923EC
:1041680012E00A2310E008230EE007230CE00623E0
:104178000AE0052308E0042306E0032304E0022301
:1041880002E0012300E000237A6902F003029200B2
:104198009340BA689A4232D17B6903F003039B00CB
:1041A8000F2202FA03F3BB601C4A7B699B080233A7
:1041B80052F82310BB68DA4318487B699B080A4009
:1041C800023340F82320204B1A68FB68DB431E4962
:1041D80013400B601C4B5A68FB68DB431A491340B9
:1041E8004B60194B9A68FB68DB43174913408B6097
:1041F800154BDA68FB68DB4313491340CB607B69D6
:1042080001337B617B690F2B7FF622AF00BF00BFB4
:104218001C37BD465DF8047B704700BF003801407D
:10422800000002400004024000080240000C024066
:10423800001002400014024000180240001C024016
:104248000020024000240240003C014080B483B0BA
:1042580000AF78600B467B8013467B707B78002B21
:1042680003D07A887B689A6103E07B881A047B68AC
:104278009A6100BF0C37BD465DF8047B70470000AB
:1042880080B582B000AF78607B68002B01D1012334
:104298007FE07B6893F84130DBB2002B06D17B6866
:1042A800002283F84020786805F082FD7B6824228C
:1042B80083F841207B681B681A687B681B6822F0BA
:1042C80001021A607B685A687B681B6822F070627A
:1042D8001A617B681B689A687B681B6822F4004235
:1042E8009A607B68DB68012B07D17B689A687B68DA
:1042F8001B6842F400429A6006E07B689A687B6813
:104308001B6842F404429A607B68DB68022B04D184
:104318007B681B684FF400625A607B681B685968A9
:104328007B681A681D4B0B4353607B681B68DA680F
:104338007B681B6822F40042DA607B681A697B6834
:104348005B6942EA03017B689B691A027B681B6808
:104358000A43DA607B68D9697B681A6A7B681B68DC
:104368000A431A607B681B681A687B681B6842F0FE
:1043780001021A607B6800225A647B68202283F855
:1043880041207B6800221A637B68002283F8422060
:10439800002318460837BD4680BD00BF00800002D4
:1043A80080B582B000AF78607B68002B01D1012313
:1043B80021E07B68242283F841207B681B681A6807
:1043C8007B681B6822F001021A60786805F034FDEA
:1043D8007B6800225A647B68002283F841207B684E
:1043E80000221A637B68002283F842207B6800223F
:1043F80083F84020002318460837BD4680BD0000DA
:1044080080B588B002AFF860084611461A460346E0
:104418007B810B463B811346FB8000237B61FB6855
:1044280093F84130DBB2202B40F009813B6A002B26
:1044380002D0BB8C002B01D1012301E1FB6893F86A
:104448004030012B01D10223FAE0FB68012283F8F6
:104458004020FEF79DFD78617B69009319230122B6
:104468004FF40041F86800F009FB0346002B01D027
:104478000323E5E0FB68212283F84120FB68402202
:1044880083F84220FB6800225A64FB683A6A5A6241
:10449800FB68BA8C5A85FB6800225A63F8883A8907
:1044A80079897B690193BB6A00930346F86800F039
:1044B80001FA0346002B0FD0FB685B6C042B05D177
:1044C800FB68002283F840200123B9E0FB68002242
:1044D80083F840200323B3E0FB685B8D9BB2FF2B7E
:1044E8000ED9FB68FF221A85FB681B8DDAB2798921
:1044F800002300934FF08073F86800F0D3FB0FE0BF
:10450800FB685B8D9AB2FB681A85FB681B8DDAB273
:104518007989002300934FF00073F86800F0C2FB1C
:104528007A69B96AF86800F0E3FA0346002B07D005
:10453800FB685B6C042B01D1012381E003237FE03E
:10454800FB685B6A591CFA6851621A78FB681B6839
:104558009A62FB685B8D9BB2013B9AB2FB685A85F5
:10456800FB681B8D013B9AB2FB681A85FB681B8DA3
:10457800002B35D1FB685B8D9BB2002B30D07B695B
:104588000093BB6A00228021F86800F077FA03469E
:10459800002B01D0032353E0FB685B8D9BB2FF2BFC
:1045A8000ED9FB68FF221A85FB681B8DDAB2798960
:1045B800002300934FF08073F86800F073FB0FE05E
:1045C800FB685B8D9AB2FB681A85FB681B8DDAB2B3
:1045D8007989002300934FF00073F86800F062FBBC
:1045E800FB685B8D9BB2002B9AD17A69B96AF8682F
:1045F80000F0BEFA0346002B07D0FB685B6C042B67
:1046080001D101231CE003231AE0FB681B68202268
:10461800DA61FB681B685968FB681A680A4B0B402B
:104628005360FB68202283F84120FB68002283F84E
:104638004220FB68002283F84020002300E0022388
:1046480018461837BD4680BD00E800FE80B588B022
:1046580002AFF860084611461A4603467B810B46AE
:104668003B811346FB8000237B61FB6893F8413054
:10467800DBB2202B40F007813B6A002B02D0BB8CB9
:10468800002B01D10123FFE0FB6893F84030012B98
:1046980001D10223F8E0FB68012283F84020FEF7ED
:1046A80077FC78617B690093192301224FF400415C
:1046B800F86800F0E3F90346002B01D00323E3E098
:1046C800FB68222283F84120FB68402283F84220BD
:1046D800FB6800225A64FB683A6A5A62FB68BA8C23
:1046E8005A85FB6800225A63F8883A8979897B6978
:1046F8000193BB6A00930346F86800F03BF9034650
:10470800002B0FD0FB685B6C042B05D1FB680022E3
:1047180083F840200123B7E0FB68002283F840209B
:104728000323B1E0FB685B8D9BB2FF2B0ED9FB68BE
:10473800FF221A85FB681B8DDAB27989544B0093E6
:104748004FF08073F86800F0ADFA0FE0FB685B8DFE
:104758009AB2FB681A85FB681B8DDAB279894C4BD3
:1047680000934FF00073F86800F09CFA7B6900939F
:10477800BB6A00220421F86800F080F90346002B88
:1047880001D0032380E0FB681B68586AFB685B6AFA
:10479800591CFA685162C2B21A70FB681B8D013B42
:1047A8009AB2FB681A85FB685B8D9BB2013B9AB293
:1047B800FB685A85FB681B8D002B35D1FB685B8D28
:1047C8009BB2002B30D07B690093BB6A002280210A
:1047D800F86800F053F90346002B01D0032353E097
:1047E800FB685B8D9BB2FF2B0ED9FB68FF221A85F5
:1047F800FB681B8DDAB27989002300934FF0807330
:10480800F86800F04FFA0FE0FB685B8D9AB2FB681E
:104818001A85FB681B8DDAB27989002300934FF063
:104828000073F86800F03EFAFB685B8D9BB2002BC2
:104838009CD17A69B96AF86800F09AF90346002BA6
:1048480007D0FB685B6C042B01D101231CE0032318
:104858001AE0FB681B682022DA61FB681B6859684C
:10486800FB681A680B4B0B405360FB68202283F8E7
:104878004120FB68002283F84220FB68002283F86D
:104888004020002300E0022318461837BD4680BDAB
:104898000024008000E800FE80B483B000AF786098
:1048A8007B6893F84130DBB218460C37BD465DF89B
:1048B800047B704780B586B002AFF86008461146A1
:1048C8001A4603467B810B463B811346FB80FB88D7
:1048D800DAB27989264B00934FF08073F86800F0BC
:1048E800E1F9FA69B969F86800F002F90346002BA2
:1048F80007D0FB685B6C042B01D1012334E0032350
:1049080032E0FB88012B05D13B89DAB2FB681B68D2
:104918009A621BE03B891B0A9BB2DAB2FB681B68F0
:104928009A62FA69B969F86800F0E2F80346002B60
:1049380007D0FB685B6C042B01D1012314E003232F
:1049480012E03B89DAB2FB681B689A62FB69009344
:10495800BB6900228021F86800F090F80346002B1C
:1049680001D0032300E0002318461037BD4680BD60
:104978000020008080B586B002AFF8600846114676
:104988001A4603467B810B463B811346FB80FB8816
:10499800DAB27989264B00930023F86800F082F98F
:1049A800FA69B969F86800F0A3F80346002B07D044
:1049B800FB685B6C042B01D1012334E0032332E054
:1049C800FB88012B05D13B89DAB2FB681B689A6228
:1049D8001BE03B891B0A9BB2DAB2FB681B689A6230
:1049E800FA69B969F86800F083F80346002B07D024
:1049F800FB685B6C042B01D1012314E0032312E054
:104A08003B89DAB2FB681B689A62FB690093BB6951
:104A180000224021F86800F031F80346002B01D04D
:104A2800032300E0002318461037BD4680BD00BFB1
:104A38000020008080B483B000AF78607B681B687A
:104A48009B6903F00203022B03D17B681B680022D9
:104A58009A627B681B689B6903F00103012B07D0EE
:104A68007B681B689A697B681B6842F001029A613F
:104A780000BF0C37BD465DF8047B704780B584B035
:104A880000AFF860B9603B601346FB711CE03B68FF
:104A9800B3F1FF3F18D03B68002B07D0FEF778FA38
:104AA8000246BB69D31A3A689A420DD2FB682022A3
:104AB80083F84120FB68002283F84220FB6800222B
:104AC80083F8402003230FE0FB681B689A69BB68E2
:104AD8001340BA689A420CBF01230023DBB21A467E
:104AE800FB799A42D3D0002318461037BD4680BDC3
:104AF80080B584B000AFF860B9607A602CE07A685D
:104B0800B968F86800F070F80346002B01D001235B
:104B18002AE0BB68B3F1FF3F1ED0BB68002B07D06B
:104B2800FEF736FA02467B68D31ABA689A4213D25D
:104B3800FB685B6C43F02002FB685A64FB68202228
:104B480083F84120FB68002283F84220FB6800229A
:104B580083F84020032307E0FB681B689B6903F088
:104B68000203022BCBD1002318461037BD4680BD67
:104B780080B584B000AFF860B9607A6028E07A68E0
:104B8800B968F86800F030F80346002B01D001231B
:104B980026E0BB68002B07D0FEF7FAF902467B68CF
:104BA800D31ABA689A4213D2FB685B6C43F02002AE
:104BB800FB685A64FB68202283F84120FB680022C6
:104BC80083F84220FB68002283F84020032307E093
:104BD800FB681B689B6903F02003202BCFD10023BF
:104BE80018461037BD4680BD80B584B000AFF86068
:104BF800B9607A60FB681B689B6903F01003102B8F
:104C080048D11CE0BB68B3F1FF3F18D0BB68002B4C
:104C180007D0FEF7BDF902467B68D31ABA689A42F4
:104C28000DD2FB68202283F84120FB68002283F81C
:104C38004220FB68002283F8402003232BE0FB6816
:104C48001B689B6903F02003202BDBD1FB681B68E2
:104C58001022DA61FB681B682022DA61F868FFF726
:104C6800E9FEFB681B685968FB681A680C4B0B4027
:104C78005360FB6804225A64FB68202283F84120B1
:104C8800FB68002283F84220FB68002283F840205A
:104C9800012300E0002318461037BD4680BD00BF41
:104CA80000E800FE80B485B000AFF8607B600B467A
:104CB8007B8113467B72FB681B685A68BB695B0D76
:104CC80003F480610D4B0B43DB4302EA03017B894C
:104CD800C3F309027B7A1B0403F47F031A437B683E
:104CE8001A43BB691A43FB681B680A435A6000BF32
:104CF8001437BD465DF8047B704700BFFF63FF03B0
:104D080080B483B000AF786039607B6893F8413035
:104D1800DBB2202B38D17B6893F84030012B01D1CE
:104D2800022332E07B68012283F840207B6824223A
:104D380083F841207B681B681A687B681B6822F02F
:104D480001021A607B681B681A687B681B6822F47A
:104D580080521A607B681B6819687B681B683A6810
:104D68000A431A607B681B681A687B681B6842F0F4
:104D780001021A607B68202283F841207B680022A8
:104D880083F84020002300E0022318460C37BD4674
:104D98005DF8047B704780B485B000AF78603960F7
:104DA8000023FB607B6893F84130DBB2202B39D1BC
:104DB8007B6893F84030012B01D1022333E07B68F4
:104DC800012283F840207B68242283F841207B68F5
:104DD8001B681A687B681B6822F001021A607B68EE
:104DE8001B681B68FB60FB6823F47063FB603B680F
:104DF8001B02FA681343FB607B681B68FA681A6039
:104E08007B681B681A687B681B6842F001021A609D
:104E18007B68202283F841207B68002283F84020A9
:104E2800002300E0022318461437BD465DF8047BD2
:104E38007047000080B584B000AF78600023FB6045
:104E48000023BB607B68002B01D10123C7E07B688E
:104E580093F8A130DBB2002B06D17B68002283F8DF
:104E6800A020786805F006F87B68022283F8A12064
:104E78007B681B689A697B681B6822F070429A619C
:104E88007B681B6899697B685A687B689B681A43CA
:104E98007B68DB681A437B681B691A437B681B685D
:104EA8000A439A617B681B6899687B681A684E4B4D
:104EB8000B4093607B685B691B04FB607B681B6825
:104EC80099687B689A69FB681A437B681B680A4380
:104ED8009A607B681B68D9687B681A68424B0B40EC
:104EE800D3607B68DB691B04FB607B681B68D9683F
:104EF8007B681A6AFB681A437B681B680A43DA6096
:104F08007B681B6819697B681A68374B0B4013610B
:104F18007B685B6A1B04FB607B681B6819697B689C
:104F28009A6AFB681A437B681B680A431A617B68A4
:104F38001B6859697B681A682B4B0B4053617B6867
:104F4800DB6A1B04FB607B681B6859697B681A6B0A
:104F5800FB681A437B681B680A435A617B6893F8AD
:104F680035301B02FB607B6893F836301B04BB604E
:104F78007B681B68DA6A7B681B6802F07F42DA622A
:104F88007B681B68D96ABA68FB6813437A6892F829
:104F980034201A437B681B680A43DA627B681B6803
:104FA8005A6B7B681B6842F004025A637B681B6873
:104FB8005A6B7B681B6842F002025A637B681B6865
:104FC8009A697B681B6842F001029A617B6800223B
:104FD800C3F8A4207B68012283F8A1200023184687
:104FE8001037BD4680BD00BF00F800F080B582B024
:104FF80000AF78607B681B689B6B03F00403002B91
:1050080025D07B681B689B6B03F00403002B1ED024
:105018007B681B685A6B7B681B6822F004025A6322
:105028007B681B680422DA637B68D3F8A43043F0FA
:1050380001027B68C3F8A4207B68042283F8A120BE
:105048007B68002283F8A020786800F07BF87B68F2
:105058001B689B6B03F00203002B25D07B681B6841
:105068009B6B03F00203002B1ED07B681B685A6BF6
:105078007B681B6822F002025A637B681B68022265
:10508800DA637B68D3F8A43043F002027B68C3F884
:10509800A4207B68042283F8A1207B68002283F87F
:1050A800A020786800F04EF87B681B689B6B03F0C3
:1050B8000103002B1DD07B681B689B6B03F0010369
:1050C800002B16D07B681B685A6B7B681B6822F024
:1050D80001025A637B681B680122DA637B6801223C
:1050E80083F8A1207B68002283F8A020786800F06C
:1050F80033F87B681B689B6B03F00803002B1DD0FB
:105108007B681B689B6B03F00803002B16D07B6839
:105118001B685A6B7B681B6822F008025A637B681D
:105128001B680822DA637B68012283F8A1207B6868
:10513800002283F8A020786800F018F800BF08372C
:10514800BD4680BD80B483B000AF786000BF0C3727
:10515800BD465DF8047B704780B483B000AF7860CB
:1051680000BF0C37BD465DF8047B704780B483B040
:1051780000AF786000BF0C37BD465DF8047B704710
:10518800B0B584B000AFF860B9607A60FB6893F896
:10519800A030012B01D102232CE0FB68012283F807
:1051A800A020FB68022283F8A120FA687B683421DA
:1051B80001FB03F3134403F13802BB6814461D4690
:1051C8000FCD0FC40FCD0FC40FCD0FC42B682360B4
:1051D8007A68B968F86800F01FF8FB681B68012254
:1051E8005A62FB68012283F8A120FB68002283F839
:1051F800A020002318461037BD46B0BD80B483B048
:1052080000AF78607B6893F8A130DBB218460C37A2
:10521800BD465DF8047B704780B489B000AFF86084
:10522800B9607A600023FB610023BB6100237B61C6
:10523800BB685A68FB681B68DB681B0CC3F30B036D
:1052480013441B04FB61FB681B681A467B68DB017F
:10525800134484335B68FA68126811467A68D2018D
:105268000A44843203F470435360BB681A68FB68CD
:105278001B68DB681B0CC3F30B0313445A1CFB6845
:105288001B6819467B68DB010B4484331946FB69AC
:1052980013434B60BB68DA68FB681B68DB68C3F3C1
:1052A8000A0313441B04FB61FB681B681A467B68EE
:1052B800DB01134484339B68FA68126811467A68E4
:1052C800D2010A44843203F470439360BB689A683D
:1052D800FB681B68DB68C3F30A0313445A1CFB68AA
:1052E8001B6819467B68DB010B4484331946FB694C
:1052F80013438B60FB681B681A467B68DB01134409
:1053080084331B69FA68126811467A68D2010A4424
:10531800843223F007031361FB681B681A467B6815
:10532800DB01134484331A46BB681B691361BB68ED
:1053380093F831301B02FB61BB6893F832301B04D1
:10534800BB61BB689B691B067B61FB681B681A46CF
:105358007B68DB01134484339B69FB681B681A462E
:105368007B68DB01134484331A4600239361BB68CE
:1053780093F830301A46FB691A43BB691A43FB6835
:105388001B6819467B68DB010B44843319467B692B
:1053980013438B61FB681B681A467B68DB01134467
:1053A80084335B69FA68126811467A68D2010A4444
:1053B800843223F0FF035361FB681B681A467B683D
:1053C800DB01134484331A46BB685B695361FB688D
:1053D8001B681A467B68DB0113448433DA69FB686F
:1053E8001B6819467B68DB010B4484331946584B0C
:1053F8001340CB61BB68DA69BB681B6AF968096846
:1054080008467968C901014484311343CB61FB68BC
:105418001B681A467B68DB01134484339B6AFB686C
:105428001B681A467B68DB01134484331A46002341
:105438009362FB681B681A467B68DB01134484335C
:105448001A46BB685B6A9362BB681B69002B02D172
:105458000423FB611BE0BB681B69012B02D10323FA
:10546800FB6114E0BB681B69042B0BD0BB681B698C
:10547800022B07D0BB681B69032B03D0BB681B69D1
:10548800072B02D10223FB6101E00123FB61FB68CA
:105498001B681A467B68DB0113448433DB6AFA68AD
:1054A800126811467A68D2010A44843203F0E02374
:1054B800D362BB689B6AFA6902FB03F31A04BB68F0
:1054C8005968BB681B68CB1AF96901FB03F30333FE
:1054D800F968096808467968C901014484311343A9
:1054E800CB62FB681B681A467B68DB011344843374
:1054F8001A6BFB681B6819467B68DB010B44843315
:105508001946144B13400B63FB681B681A467B68EB
:10551800DB01134484331A46BB68DB6A1363FB68F8
:105528001B681A467B68DB01134484331B68FA68DE
:10553800126811467A68D2010A44843243F00103A2
:10554800136000BF2437BD465DF8047B704700BF79
:10555800F8F8FFFF00F8FFFF80B400AF054B1B68A9
:10556800044A43F48073136000BFBD465DF8047BB2
:10557800704700BF0070004080B582B000AF0023C4
:105588007B60234B1B6C224A43F080531364204BEF
:105598001B6C03F080533B603B681E4B1B681D4A25
:1055A80043F480331360FDF7F3FC786009E0FDF7FE
:1055B800EFFC02467B68D31AB3F57A7F01D903233F
:1055C80022E0144B5B6803F48033B3F5803FEED1DF
:1055D800104B1B680F4A43F400331360FDF7D8FCE7
:1055E800786009E0FDF7D4FC02467B68D31AB3F56E
:1055F8007A7F01D9032307E0064B5B6803F4003385
:10560800B3F5003FEED1002318460837BD4680BDEC
:10561800003802400070004080B586B000AF786066
:105628000023FB757B68002B01D101235CE27B68BA
:105638001B6803F00103002B00F08780964B9B68E2
:1056480003F00C03042B0CD0934B9B6803F00C0362
:10565800082B12D1904B5B6803F48003B3F5800FDD
:105668000BD18D4B1B6803F40033002B6CD07B6887
:105678005B68002B68D1012336E27B685B68B3F571
:10568800803F06D1844B1B68834A43F48033136000
:105698002EE07B685B68002B0CD17F4B1B687E4A31
:1056A80023F4803313607C4B1B687B4A23F48023EC
:1056B80013601DE07B685B68B3F5A02F0CD1764BB7
:1056C8001B68754A43F480231360734B1B68724A46
:1056D80043F4803313600BE06F4B1B686E4A23F46E
:1056E800803313606C4B1B686B4A23F48023136070
:1056F8007B685B68002B13D0FDF74AFC386108E033
:10570800FDF746FC02463B69D31A642B01D90323F3
:10571800EAE1614B1B6803F40033002BF0D014E07E
:10572800FDF736FC386108E0FDF732FC02463B69BC
:10573800D31A642B01D90323D6E1574B1B6803F412
:105748000033002BF0D100E000BF7B681B6803F03A
:105758000203002B69D0504B9B6803F00C03002B0D
:105768000BD04D4B9B6803F00C03082B1CD14A4B04
:105778005B6803F48003002B16D1474B1B6803F0CA
:105788000203002B05D07B68DB68012B01D00123C5
:10579800AAE1414B1B6823F0F8027B681B69DB0018
:1057A8003D4913430B6040E07B68DB68002B23D046
:1057B800394B1B68384A43F001031360FDF7E8FBD7
:1057C800386108E0FDF7E4FB02463B69D31A022B77
:1057D80001D9032388E1304B1B6803F00203002B37
:1057E800F0D02D4B1B6823F0F8027B681B69DB00A7
:1057F800294913430B6018E0274B1B68264A23F0FE
:1058080001031360FDF7C4FB386108E0FDF7C0FB36
:1058180002463B69D31A022B01D9032364E11E4BCC
:105828001B6803F00203002BF0D17B681B6803F0B0
:105838000803002B38D07B685B69002B19D0164B06
:105848005B6F154A43F001035367FDF7A1FB38610D
:1058580008E0FDF79DFB02463B69D31A022B01D9EC
:10586800032341E10C4B5B6F03F00203002BF0D0E4
:105878001AE0094B5B6F084A23F001035367FDF7F1
:1058880087FB38610AE0FDF783FB02463B69D31AC0
:10589800022B03D9032327E100380240944B5B6FA6
:1058A80003F00203002BEED17B681B6803F00403AE
:1058B800002B00F0A4808E4B1B6C03F08053002B50
:1058C8000DD18B4B1B6C8A4A43F080531364884B71
:1058D8001B6C03F08053FB60FB680123FB75854B51
:1058E8001B6803F48073002B18D1824B1B68814A14
:1058F80043F480731360FDF74BFB386108E0FDF754
:1059080047FB02463B69D31A642B01D90323EBE01A
:10591800784B1B6803F48073002BF0D07B689B687E
:10592800012B06D1724B1B6F714A43F001031367B9
:105938002DE07B689B68002B0CD16D4B1B6F6C4A6C
:1059480023F0010313676A4B1B6F694A23F00403B2
:1059580013671CE07B689B68052B0CD1644B1B6F9D
:10596800634A43F004031367614B1B6F604A43F0BB
:10597800010313670BE05E4B1B6F5D4A23F00103C5
:1059880013675B4B1B6F5A4A23F0040313677B684A
:105998009B68002B15D0FDF7FBFA38610AE0FDF78C
:1059A800F7FA02463B69D31A41F28832934201D989
:1059B800032399E04E4B1B6F03F00203002BEED03C
:1059C80014E0FDF7E5FA38610AE0FDF7E1FA02466E
:1059D8003B69D31A41F28832934201D9032383E009
:1059E800434B1B6F03F00203002BEED1FB7D012B11
:1059F80005D13F4B1B6C3E4A23F0805313647B68F0
:105A08009B69002B6FD03A4B9B6803F00C03082B63
:105A180067D07B689B69022B49D1354B1B68344A98
:105A280023F080731360FDF7B3FA386108E0FDF7DF
:105A3800AFFA02463B69D31A022B01D9032353E07C
:105A48002B4B1B6803F00073002BF0D17B68DA69DD
:105A58007B681B6A1A437B685B6A9B011A437B68F5
:105A68009B6A5B08013B1B041A437B68DB6A1B06C5
:105A780013431F4A43F0005353601D4B1B681C4AD5
:105A880043F080731360FDF783FA386108E0FDF78F
:105A98007FFA02463B69D31A022B01D9032323E07C
:105AA800134B1B6803F00073002BF0D01BE0104B66
:105AB8001B680F4A23F080731360FDF769FA386199
:105AC80008E0FDF765FA02463B69D31A022B01D9B3
